:0A0000000C9446000C949F000C9431
:10000A0000000C9400000C9400000C9400000C9466
:10001A0000000C9400000C9400000C9400000C9456
:10002A0000000C9400000C9400000C947E000C94C8
:10003A0000000C9400000C9400000C9400000C9436
:10004A0000000C9400000C9400000C9400000C9426
:10005A0000000C9400000C9400000C9400000C9416
:10006A0000000C9400000C9400000C9400000C9406
:10007A0000000000000032000000080003007C00BD
:10008A000000F894EE27EFBBF1E0F5BFE5BFF8E119
:10009A00A895A4B7A77FA4BFF0936000E09360007F
:1000AA008DE0A2E0BB27ED938A95E9F780E094E022
:1000BA00A0E0B1E0ED930197E9F7E4E8F0E085917B
:1000CA009591009761F0A591B59105901590BF01A2
:1000DA00F00105900D920197E1F7FB01F0CFE0E006
:1000EA00EEBBEFEFEDBFE4E0EEBFC0E0D2E00C9470
:1000FA00D2000A921A92FA926A937A938A939A93FC
:10010A00AA93BA93EA93FA93EFB7EA93469AAAE0C4
:10011A00B0E0CCD14698B6D0E991EFBFF991E99118
:10012A00B991A9919991899179916991F9901990C7
:10013A00099018950A921A926A937A938A939A93D3
:10014A00AA93BA93EA93FA93EFB7EA93E0918500F8
:10015A00FE2FE0E0DF01E0918400F0E0EA2BFB2BC8
:10016A00A4E3B0E0AFD03E2E4F2E6627772723D1E7
:10017A00A6E9B3E48BE89CE34BD1E6D05E2E6F2E62
:10018A00E991EFBFF991E991B991A9919991899171
:10019A0079916991199009901895E0E8E0936100C6
:1001AA00E0E0E0936100E2B9E1B9E5B9E0ECE4B975
:1001BA00E0E0E8B9E0E4E7B9E0E0EBB9E0ECEAB99D
:1001CA00E0E0E4BDE5BDE6BDE7BDE8BDE093800043
:1001DA00EDE0E093810056D0E0E0E0938700E09301
:1001EA008600E0E2E0938900E0E1E0938800E0E045
:1001FA00E0938B00E0938A00E2E0E0936900E1E09B
:10020A00EDBBECBBE0E0E0936800E0936E00E2E057
:10021A00E0936F00E0E0E0937000E093C100E093A8
:10022A00C900E0E8E0BFE0E0E0937B00E0937F00F4
:10023A00E0937A00ECBDE093BC007894571468040C
:10024A0024F4002409140A0409F008C05E9AE1E0C3
:10025A00F0E09E2EAF2E2E9A2F981AD0751486048F
:10026A002CF4E1E0F0E0E915FA0509F009C05E981E
:10027A00092C0A2829F09924AA242E982F9A08D002
:10028A00DDCFFFCFE0E0E0938500E093840008959E
:10029A00AAE0B0E00BD12E982F980895F195E19538
:1002AA00F0400895F09560957095E195FF4F6F4F76
:1002BA007F4F0895FA9FF02DEB9FF00DEA9FE02DF6
:1002CA00F10D089504D0F6DF0EF4E8DF0895E894FE
:1002DA00F7FF02C0E3DF6894B7FF06C0B195A195A6
:1002EA00B04000F8039400FA0895552342F45038B8
:1002FA0011F4E0FF04C03196691F791F6BF050E8D2
:10030A00572711F45F9373C05F3F31F0660F000CFB
:10031A0057956795752F08955F9300200AF072C06C
:10032A006BC050E8192E1522880F991F9527550F73
:10033A00879550E8072E0522660F771F7527550FF8
:10034A0067950895689401C0E8945F93F2DF703866
:10035A0018F07F3F08F44BC056E1571BAAF4519599
:10036A0058300EF4593030F0EFEFFFEF6FEF7FE7C0
:10037A0077F91AC077275523B9F0EE0FFF1F661FCA
:10038A00771F5A95D1F710C07727583028F0EF2FEA
:10039A00F62F672F5850F9CF552331F07695679588
:1003AA00F795E7955A95D1F700200AF47BDF5F911C
:1003BA000895689401C0E894309760407040B1F0A5
:1003CA00002426F0772312F400946CDF172E7EE1C6
:1003DA00112032F07A95EE0FFF1F661F111CF9CF1C
:1003EA00EF2FF62F612D5F938ADF5F910895EE2735
:1003FA00FF27BF015F910895EFEFFFEF6FE77FEFF0
:10040A005F910895EFEFFFEF6FE77FE75F91089540
:10041A005F9387DF703859F3903849F301240894C1
:10042A00791F23F424F300203AF3ECCF0F921F93A1
:10043A002F933F934F93112722279927689FA00153
:10044A008F9F302D410D591F6B9F300D411D591F34
:10045A008E9F27D0BF9F25D06A9F23D0BE9F1DD0D5
:10046A00AF9F1BD0AE9F110D291F391F491F591F5E
:10047A00E32FF42F652F522F4F913F912F911F9108
:10048A000F9066232AF0550FEE1FFF1F661F02C04A
:10049A0073954BF22ADF5F910895100D211D391FC4
:1004AA0002C0200D311D491F591F0895109639F0B9
:1004BA00A89588E893E10197F1F71197C9F708958C
:00000001FF
